:020000040800F2
:1000000000000220A9260008DD200008E5200008E5
:10001000ED200008F5200008FD2000080000000089
:1000200000000000000000000000000005210008A2
:1000300013210008000000002121000831210008E0
:10004000F9260008F9260008F9260008F926000814
:10005000F9260008F92600087D210008F926000885
:10006000F9260008F9260008F9260008F9260008F4
:10007000F9260008F9260008F9260008F9260008E4
:10008000F9260008F9260008F9260008F9260008D4
:100090008D210008F9260008F9260008F926000835
:1000A000F9260008F9260008F9260008F9260008B4
:1000B000F9260008F9260008F9260008F9260008A4
:1000C000F9260008F9260008F9260008F926000894
:1000D000F9260008F9260008F9260008052200087C
:1000E000F9260008F9260008F9260008F926000874
:1000F000F9260008F9260008F9260008F926000864
:10010000F9260008F9260008F9260008F926000853
:10011000F9260008F9260008F9260008F926000843
:10012000F9260008F9260008F9260008F926000833
:10013000F92600080000000000000000F926000871
:1001400025220008F9260008F9260008F9260008EB
:10015000F9260008F9260008F9260008F926000803
:10016000F9260008F9260008F9260008F9260008F3
:10017000F9260008F9260008000000000000000031
:08018000F9260008F926000829
:1001900010B5054C237833B9044B13B10448AFF3C1
:1001A00000800123237010BDB40000200000000077
:1001B0005069000808B5034B1BB103490348AFF36E
:1001C000008008BD00000000B80000205069000851
:1001D00001F0FF01102A2BDB10F0070F08D010F8F8
:1001E000013B013A8B422DD010F0070F42B3F6D1FC
:1001F000F0B441EA012141EA014122F007047FF015
:1002000000070023F0E80256083C85EA010586EA6B
:10021000010685FA47F5A3FA87F586FA47F6A5FAA7
:1002200087F68EB9EED1F0BC01F0FF0102F00702B3
:1002300032B110F8013B013A83EA010313B1F8D15E
:100240000020704701387047002D06BF354603383F
:10025000073815F0010F07D1013015F4807F02BF78
:10026000013015F4C03F0130F0BC0138704700BFC9
:1002700053B94AB9002908BF00281CBF4FF0FF310D
:100280004FF0FF3000F06AB9ADF1080C6DE904CE13
:1002900000F006F8DDF804E0DDE9022304B0704761
:1002A0002DE9F047089D0C46002B4ED194468C4515
:1002B0008646B2FA82F262D94AB1C2F12003914075
:1002C00020FA03F30CFA02FC194300FA02FE4FEA8B
:1002D0001C471FFA8CF6B1FBF7F44FEA1E4307FBED
:1002E000141143EA014304FB06F199420AD91CEBBD
:1002F000030304F1FF3080F01281994240F20F8134
:10030000023C6344591A1FFA8EF3B1FBF7F007FB66
:10031000101143EA014300FB06F69E420AD91CEB8A
:10032000030300F1FF3180F0FC809E4240F2F9802F
:10033000634402389B1B40EA044000211DB1D340B6
:100340000022C5E90032BDE8F0878B4205D90DB126
:10035000C5E9000100210846F5E7B3FA83F1002959
:1003600046D1A34202D39042C0F0F080861A64EBDB
:1003700003030120002DE6D0C5E90063E3E7002A6E
:1003800040F09080A1EB0C044FEA1C481FFA8CF758
:100390000121B4FBF8F64FEA1E4308FB164443EA7A
:1003A000044307FB06F0984208D91CEB030306F14F
:1003B000FF3402D2984200F2CD8026461C1A1FFA62
:1003C0008EF3B4FBF8F008FB104443EA044300FB4F
:1003D00007F79F4208D91CEB030300F1FF3402D258
:1003E0009F4200F2B0802046DB1B40EA0640A5E7B2
:1003F000C1F120068B4022FA06F71F4320FA06FCC3
:1004000004FA01F343EA0C03F44000FA01F8380C53
:100410004FEA1349B4FBF0FE1FFA87FC00FB1E44B1
:1004200049EA04440EFB0CF9A14502FA01F20AD98B
:100430003C190EF1FF3A80F08480A14540F28180A2
:10044000AEF1020E3C44A4EB09041FFA83F9B4FB9D
:10045000F0F300FB134449EA044403FB0CFCA445FD
:1004600007D93C1903F1FF3067D2A44565D9023B97
:100470003C4443EA0E40A0FB0293A4EB0C049C42D4
:10048000CE469C4651D34ED055B1B8EB0E0364EB2B
:100490000C0404FA06F6CB401E43CC40C5E90064C8
:1004A000002150E7C2F1200320FA03F10CFA02FC0C
:1004B00024FA03F394400C434FEA1C4800FA02FE6E
:1004C0001FFA8CF7B3FBF8F008FB1031230C43EA5A
:1004D000014300FB07F1994208D91CEB030300F12B
:1004E000FF362CD299422AD9023863445B1AA4B24F
:1004F000B3FBF8F108FB113344EA034401FB07F3B3
:10050000A34208D91CEB040401F1FF3613D2A34225
:1005100011D902396444E41A41EA004139E704463A
:10052000F0E6084606E7C845AED2B9EB020E63EB2B
:10053000070C0138A8E73146EDE7034699E7304656
:10054000D4E7D6467FE7634402384DE706462346A4
:1005500008460FE7023E634430E700BF704700BF24
:1005600080B584B000AF786039600023FB7300234E
:100570007B730023BB73914B1B78012B02D18F4BF4
:1005800000221A708D4B1B78002B40F0A7818C4BFA
:1005900003F580531A467B68D360894B03F580537B
:1005A00000221A723B681B78002B05D1844B03F59F
:1005B000805300221A7291E1814B03F58053DA686F
:1005C000804B1B689A4205D07D4B03F58053002277
:1005D0001A7283E13B681B7803F0F003302B16D0CE
:1005E000302B20DC202B18D0202B1CDC002B02D041
:1005F000102B06D017E0724B03F5805300225A727D
:1006000012E06F4B03F5805310225A720CE06C4BD2
:1006100003F5805330225A7206E0694B03F580538C
:1006200020225A7200E000BF654B03F580535B7ACD
:10063000002B58D13B685A78614B1A704FF48052A6
:100640000021614805F033F90023FB730BE0FB7BCD
:100650003A681A44FB7B1178594A13440A465A7087
:10066000FB7B0133FB733B681B78FA7B9A42EED924
:100670003B681B781A46524B03F580539A80504BC7
:100680001B787B730023FB730DE0FB7B4F4ADB0081
:1006900013441B797A7B9A4202D10123BB7305E094
:1006A000FB7B0133FB73FB7B022BEED9BB7B002B67
:1006B00006D0FB7B454A52F83330414898470DE15C
:1006C0003F4B03225A703E4B7F229A703C4B1A7864
:1006D0003B4BDA703A4B11221A71394B03F58053B8
:1006E00002221A72FAE0364B03F580535B7A102B24
:1006F00052D13B689A78324B1A704FF480520021E5
:10070000314805F0D4F83B681B781A462C4B03F5AA
:1007100080539A802A4B03F580539B881B029AB220
:10072000274B03F580539A80254B03F580539B8814
:100730003A680132127813439AB2214B03F5805381
:100740009A801F4B03F580539B88C3F30B039AB227
:100750001B4B03F580539A800023FB730DE0FB7B5A
:1007600002333A681A44FB7B01331178144A13446C
:100770000A465A70FB7B0133FB73FB7B052BEED9DA
:10078000134B07221A800E4B03F5805301221A7275
:100790000A4B01221A70A1E0094B03F580535B7AE2
:1007A000302B00F09B80064B03F580535B7A202BA7
:1007B00040F08C80074B00221A8023E008000020C4
:1007C000E804002000000020E9040020286A000856
:1007D000E4040020E6040020424B1B8801333A6801
:1007E0001A44404B1B8819463F4B1B880B44117819
:1007F0003E4A13440A465A703A4B1B8801339AB258
:10080000384B1A80374B1B88062BE5D9364B1A8894
:10081000344B1B8813449AB2334B1A80334B03F585
:1008200080539A88304B1B889A4246D82F4B1B78AE
:100830007B730023FB7320E0FB7B2D4ADB0013441A
:100840001B797A7B9A4202D10123BB7318E07B7B30
:10085000A3F14002FB7B2649DB000B441B799A4243
:1008600008D1224B1B78403BDAB2204B1A7001238F
:10087000BB7305E0FB7B0133FB73FB7B022BDBD9F6
:10088000BB7B002B06D0FB7B194A52F8333017484C
:10089000984723E0154B03225A70144B7F229A701D
:1008A000124B1A78114BDA70104B11221A710F4B40
:1008B00003F5805302221A7210E00C4B03F58053AB
:1008C00001221A720B4B01221A7007E0074B03F545
:1008D000805300221A72074B01221A7000BF103792
:1008E000BD4680BDE6040020E4040020E8040020AA
:1008F000286A00080800002080B400AF2C4B03F5E4
:1009000080535B7A002B16D1294B03F580531B7A59
:10091000002B47D0264B03F580531B7A022B41D185
:10092000234B03225A70224B7F229A70204B1A7855
:100930001F4BDA7036E01E4B03F580535B7A102BA9
:1009400003D11B4B30225A702CE0194B03F5805316
:100950005B7A302B26D0164B03F580535B7A202B25
:1009600020D1134B03F580539A88124B1B889A426F
:1009700002D90F4B20225A700D4B03F580531B7A7E
:10098000002B0FD00A4B03F580531B7A022B09D1A1
:10099000074B03225A70064B7F229A70044B1A7839
:1009A000034BDA7000BFBD465DF8047B704700BFA3
:1009B000E8040020E404002080B483B000AF0023EA
:1009C000FB80134B1B683B60124B07225A70114B84
:1009D0001B784033DAB20F4B9A703B681B0EDAB2C9
:1009E0000C4B5A713B681B0CDAB20A4B9A713B688C
:1009F0001B0ADAB2074BDA713B68DAB2054B1A729E
:100A0000FB8818460C37BD465DF8047B704700BF75
:100A100000000020E804002080B483B000AF002371
:100A2000FB80134B1B683B60124B07225A70114B23
:100A30001B784033DAB20F4B9A703B681B0EDAB268
:100A40000C4B5A713B681B0CDAB20A4B9A713B682B
:100A50001B0ADAB2074BDA713B68DAB2054B1A723D
:100A6000FB8818460C37BD465DF8047B704700BF15
:100A700004000020E804002080B483B000AF00230D
:100A8000FB80284B1B88002B03D13323FB80FB8882
:100A900042E000233B60244B5B793B603B681B06D4
:100AA000214A927913433B603B681B041E4AD2796A
:100AB00013433B603B681B021B4A127A13433B60A3
:100AC0003B6840F2FF7293428CBF01230023DAB2ED
:100AD0003B68002B0CBF01230023DBB21343DBB2C6
:100AE000002B03D03123FB80FB8815E00F4B1B68E4
:100AF0003A689A4203D12223FB80FB880CE00C4A1F
:100B00003B681360084B01225A70074B1B78403337
:100B1000DAB2054B9A70FB8818460C37BD465DF873
:100B2000047B7047E0000020E8040020040000205F
:100B30000000002080B483B000AF0023FB80284B6E
:100B40001B88002B03D13323FB80FB8842E000236A
:100B50003B60244B5B793B603B681B06214A9279E2
:100B600013433B603B681B041E4AD27913433B602E
:100B70003B681B021B4A127A13433B603B6840F2FE
:100B8000FF7293428CBF01230023DAB23B68002B33
:100B90000CBF01230023DBB21343DBB2002B03D0D5
:100BA0003123FB80FB8815E00F4B1B683A689A42A3
:100BB00003D12223FB80FB880CE00C4A3B681360C6
:100BC000084B01225A70074B1B784033DAB2054BB1
:100BD0009A70FB8818460C37BD465DF8047B704759
:100BE000E0000020E80400200000002004000020B5
:100BF00080B483B000AF0023FB80FB8818460C371D
:100C0000BD465DF8047B704780B483B000AF00231D
:100C1000BB80184B1B88002B03D13323BB80BB88C0
:100C200021E00023FB800AE0FB881A1DFB881249A3
:100C30000A445178114AD154FB880133FB80FA8869
:100C40000D4B03F580539B88033B9A42ECDB0A4B28
:100C500001225A70084B1B784033DAB2064B9A7067
:100C60000023BB80BB8818460C37BD465DF8047B6B
:100C7000704700BFE0000020E8040020E4000020EE
:100C800080B582B000AF0023FB80544B06225A701F
:100C9000524B1B784033DAB2504B9A7004F0A4FCEC
:100CA0000346DAB24D4B1A7104F09EFC0346DAB2E9
:100CB0004A4B5A7104F098FC0346DAB2474B9A71DA
:100CC00004F092FC0346DAB2444BDA71434B37220C
:100CD0001A72424B1A79414B5B795340DAB2404B5E
:100CE0001A703E4B5A793D4B9B791344DAB23C4B18
:100CF0005A703A4B9A79394BDB795340DAB2384B18
:100D00009A70364BDA79354B1B791344DAB2344B8F
:100D1000DA70324B1A79314B5B791343DAB2304BCC
:100D20001A712E4B5A792D4B9B791344DAB22C4B06
:100D30005A712A4B9A79294BDB791343DAB2284B43
:100D40009A71264BDA79254B1B791344DAB2244B7E
:100D5000DA71224B1A79214B5B791340DAB2204BBE
:100D60001A721E4B5A791D4B9B791344DAB21C4BF5
:100D70005A721A4B9A79194BDB791340DAB2184B35
:100D80009A72164BDA79154B1B791344DAB2144B6D
:100D9000DA72124B1A79114B5B79D31ADAB2104B13
:100DA0001A730E4B5A790D4B9B791344DAB20C4BE4
:100DB0005A730A4B9A79094BDB79D31ADAB2084B8A
:100DC0009A73064BDA79054B1B791344DAB2044B5C
:100DD000DA73FB8818460837BD4680BDE80400205A
:100DE000D000002080B487B000AF0023FB82002336
:100DF0007B75314B1B793B712F4B5B797B712E4B94
:100E00009B79BB712C4BDB79FB712B4B1B7A3B72B3
:100E1000294B5B7A7B72284B9B7ABB72264BDB7A21
:100E2000FB72254B1B7B3B73234B5B7B7B73224B02
:100E30009B7BBB73204BDB7BFB731F4B1B7C3B748F
:100E40001D4B5B7C7B741C4B9B7CBB741A4BDB7C0B
:100E5000FB7400237B750CE07B7D18333B4413F857
:100E6000142C7B7D1549CB5C9A4206D17B7D0133E6
:100E70007B757B7D0F2BEFD900E000BF7B7D0F2BB7
:100E800002D83523FB820FE00D4B41F288321A80E5
:100E9000094B02225A70084B1B784033DAB2064BDA
:100EA0009A70054B0222DA70FB8A18461C37BD4641
:100EB0005DF8047B704700BFE8040020D0000020EC
:100EC000E000002080B584B000AF786000237B8113
:100ED0000023FB730023BB7300233B817B6803F576
:100EE00080539B88032B02D01323FB732EE07B6877
:100EF000DB787B817B891B027B817B681B791A46AF
:100F00007B8913437B810023BB730AE02A4ABB7BA6
:100F10009B0013441B887A899A4208D0BB7B01331B
:100F2000BB73BB7B9BB203229342EFD300E000BFB5
:100F3000BB7B9BB20322934202D33123FB7305E0B8
:100F40001D4ABB7B9B0013449B787B73FB7B002B70
:100F50001FD17B7B194A52F82330984703463B81C7
:100F60003B89332B0CD0332B10DC002B02D0222BEF
:100F700009D00BE07B6803F5805301221A7208E068
:100F80003323FB7305E02223FB7302E01023FB7382
:100F900000BFFB7B002B07D07B68FA7B1A717B6854
:100FA00003F5805302221A72054B01221A7000BF0A
:100FB0001037BD4680BD00BF606A0008406A000867
:100FC0000800002080B584B000AF786000233B7338
:100FD0000023FB730023BB7300237B817B6803F535
:100FE00080539B88062B02D90023FB7318E07B6893
:100FF00003F580539B88022B06D04F4B1B78002BA8
:1010000002D11323FB730BE07B6803F580539B88AD
:10101000062B05D0484B1B78012B01D11323FB7302
:10102000FB7B002B4BD17B68DB783B730023BB73CE
:101030000BE0424ABB7B9B0013441A883B7B9BB26C
:101040009A4208D0BB7B0133BB73BB7B9BB20222AD
:101050009342EED300E000BFBB7B9BB202229342DF
:1010600002D33123FB732AE03B7B03F00103DBB2A5
:10107000002B06D1304B1B78002B02D12423FB73AD
:101080001DE03B7B03F00103DBB2002B06D02A4BB3
:101090001B78012B02D12423FB7310E0264B1B7815
:1010A000002B03D1244B01221A7002E0224B0022B4
:1010B0001A70224ABB7B9B0013449B787B73FB7B9B
:1010C000002B26D17B7B1E4A52F8233098470346DB
:1010D0007B817B89352B10D0352B17DC332B0FD040
:1010E000332B13DC002B02D0222B0CD00EE07B68BC
:1010F00003F5805301221A720BE03523FB7308E0DD
:101100003323FB7305E02223FB7302E01023FB7300
:1011100000BFFB7B002B07D07B68FA7B1A717B68D2
:1011200003F5805302221A72064B01221A7000BF87
:101130001037BD4680BD00BFF81400206C6A00085F
:10114000406A00080800002080B584B000AF7860D5
:1011500000237B810023FB730023BB7300233B81AF
:101160007B6803F580539B88032B02D81323FB7302
:101170003BE07B68DB787B817B891B027B817B6822
:101180001B791A467B8913437B810023BB730AE0DA
:10119000344ABB7B9B0013441B887A899A4208D04F
:1011A000BB7B0133BB73BB7B9BB203229342EFD368
:1011B00000E000BFBB7B9BB20322934202D33123EA
:1011C000FB7305E0274ABB7B9B0013449B787B7332
:1011D0007B6803F580539B882249BA7B92000A44BE
:1011E000D278934201D21323FB73FB7B002B26D1D1
:1011F0007B7B1D4A52F82330984703463B813B894D
:10120000332B10D0332B17DC312B0FD0312B13DCC9
:10121000002B02D0222B0CD00EE07B6803F580530C
:1012200001221A720BE03323FB7308E03123FB73B6
:1012300005E02223FB7302E01023FB7300BFFB7B5E
:10124000002B07D07B68FA7B1A717B6803F580530B
:1012500002221A72054B01221A7000BF1037BD46D8
:1012600080BD00BF746A0008406A000808000020C2
:1012700080B582B000AF0023FB800023BB8001F06B
:101280003DFA00F03BF800F085F900F0A1F800F01D
:10129000FBF800F055F9144B1B68184600F00AFAE9
:1012A000124B1B68184600F04DFA114B1B68DA68A8
:1012B0000F4B1B6842F02002DA6000F035FC4FF45F
:1012C000FA6000F04FFB00F0A3FB4FF4FA6000F06F
:1012D00049FB4FF480520021064804F0E8FA064B1F
:1012E00000221A8000BFE8E7000000200400002070
:1012F0004C150020581600205416002080B594B0DC
:1013000000AF07F1200330220021184604F0CFFA85
:1013100007F10C0300221A605A609A60DA601A61C1
:101320000023BB60284B1B6C274A43F08053136497
:10133000254B1B6C03F08053BB60BB6800237B60B4
:10134000224B1B68214A43F4804313601F4B1B68E8
:1013500003F480437B607B6802233B620123FB62D2
:1013600010233B630223BB630023FB6308233B641E
:1013700040237B640223BB640423FB6407F1200346
:10138000184602F043FC0346002B01D000F072FD2A
:101390000F23FB6002233B6100237B614FF4C053AA
:1013A000BB614FF48053FB6107F10C030221184627
:1013B00002F0A4FE0346002B01D000F05BFD00BF4D
:1013C0005037BD4680BD00BF00380240007000406D
:1013D00080B500AF294B2A4A1A60284B01225A6077
:1013E000264B00229A60254B4FF08072DA60234B27
:1013F0004FF420221A61214B4FF440125A611F4BC7
:1014000000221A761D4B00225A761C4B00229A7637
:101410001A4B0022DA76194B00221A77174B00225A
:101420005A77164801F000FA0346002B01D000F06D
:1014300021FD144B01221A62124B0D225A62114BEC
:1014400008225A610F4B00221A610E4B00229A614A
:101450000C4B0122DA610B4B42F260421A60094BDD
:1014600000225A60074B00229A60064B0022DA6085
:10147000044B01221A6200BF80BD00BFFC14002093
:1014800000640040C815002080B500AF294B2A4AEF
:101490001A60284B01225A60264B00229A60254B85
:1014A0004FF08072DA60234B4FF420221A61214BF7
:1014B0004FF440125A611F4B00221A761D4B002236
:1014C0005A761C4B00229A761A4B0022DA76194B78
:1014D00000221A77174B00225A77164801F0A4F918
:1014E0000346002B01D000F0C5FC144B01221A6208
:1014F000124B0D225A62114B13225A610F4B0022DC
:101500001A610E4B00229A610C4B0122DA610B4BDF
:1015100042F260421A60094B00225A60074B0022D7
:101520009A60064B0022DA60044B01221A6200BF67
:1015300080BD00BF24150020006800402416002054
:1015400080B500AF114B124A1A60104B4FF4E132D4
:101550005A600E4B00229A600C4B0022DA600B4B53
:1015600000221A61094B0C225A61084B00229A6131
:10157000064B0022DA61054802F0E0FF0346002B2B
:1015800001D000F077FC00BF80BD00BF4C150020EB
:101590000048004080B58AB000AF07F11403002274
:1015A0001A605A609A60DA601A6100233B613D4B11
:1015B0001B6B3C4A43F0040313633A4B1B6B03F071
:1015C00004033B613B690023FB60364B1B6B354AD0
:1015D00043F080031363334B1B6B03F08003FB600A
:1015E000FB680023BB602F4B1B6B2E4A43F00103AB
:1015F00013632C4B1B6B03F00103BB60BB68002320
:101600007B60284B1B6B274A43F002031363254B77
:101610001B6B03F002037B607B6842F2F0037B618B
:101620000023BB610123FB6107F1140319461E4827
:1016300002F006F901237B614FF40413BB6101231F
:10164000FB6107F114031946184802F0F9F8022368
:101650007B610023BB610123FB6107F11403194681
:10166000124802F0EDF801237B610123BB610023E6
:10167000FB6100233B6207F1140319460C4802F09A
:10168000DFF8002201210A4802F08EFA002203212D
:10169000062002F00CF8062002F025F800BF2837DB
:1016A000BD4680BD003802400008024000000240F4
:1016B0000004024080B582B000AF78601E4B01226A
:1016C0001A621D4B0E225A621B4B08225A611A4B9A
:1016D00000221A61184B00229A61174B0122DA612D
:1016E0007B685B01144A1360134B00225A60124B53
:1016F00000229A60104B0022DA600F4B01221A621E
:101700000D490E4801F08CF90C4801F069FA0221EC
:101710000A4801F09BFC0A4B08221A61084B002280
:101720009A60074B0022DA60054A7B68136000BFAD
:101730000837BD4680BD00BFC8150020FC1400203E
:101740009415002080B582B000AF78601E4B012256
:101750001A621D4B0E225A621B4B13225A611A4BFE
:1017600000221A61184B00229A61174B0122DA619C
:101770007B685B01144A1360134B00225A60124BC2
:1017800000229A60104B0022DA600F4B01221A628D
:101790000D490E4801F044F90C4801F021FA0221EC
:1017A0000A4801F053FC0A4B08221A61084B002238
:1017B0009A60074B0022DA60054A7B68136000BF1D
:1017C0000837BD4680BD00BF241600202415002028
:1017D000F015002080B582B000AF786009E04FF0CE
:1017E000FF3301227968074802F0F8FE7B68013375
:1017F0007B607B681B78002BF1D100BF00BF0837EE
:10180000BD4680BD4C15002080B588B000AF0346B2
:101810003960FB800023FB833B4A07F11803126801
:10182000114619800233120C1A7042F22003BB8257
:10183000364A07F10C0392E8030083E80300344BB7
:101840001A6807F10C033349184603F0CDFF07F17E
:101850000C031846FFF7BEFF2F48FFF7BBFFFA88BF
:1018600007F118032D49184603F0BEFF0023FB8340
:101870000AE0FA8BFB8B20323A4412F8081C284A03
:10188000D154FB8B0133FB83FB8B022BF1D9244B0F
:101890003A22DA70224B20221A710023FB8325E0C2
:1018A000FB8B3A6813441B781A4607F114031D4951
:1018B000184603F099FFFA8B13465B001344053377
:1018C000397D174AD154FA8B13465B001344063313
:1018D000797D134AD154FA8B13465B0013440733C6
:1018E0000F4A2021D154FB8B0133FB83FB8B072B49
:1018F000D6D90B4B0A225A770948FFF76BFF00BF76
:101900002037BD4680BD00BF80690008846900089B
:101910005C260020686900086C690008706900088E
:101920002C0000207869000880B483B000AF786094
:10193000094B1B881A46094B1978094B9954064BD9
:101940001B8801339AB2044B1A8000BF0C37BD4686
:101950005DF8047B704700BF541600205826002015
:101960005816002080B582B000AF0346FB80FB888C
:10197000184600F035FF00BF0837BD4680BD80B473
:1019800085B000AF78600B46FB700023BB7300236B
:10199000FB7300233B7300237B730023FB72002344
:1019A000FB732AE0FB7B002B02D100237B7307E053
:1019B000FA78FB7BD31A1A467B6813441B787B7337
:1019C000BA7B7B7B5340BB7308233B730FE0BB7B2D
:1019D000FB72BB7B5B00BB7397F90B30002B03DA08
:1019E000BB7B83F01D03BB733B7B013B3B733B7BAA
:1019F000002BECD1FB7B0133FB73FA78FB7B9A4223
:101A0000D0D2BB7B18461437BD465DF8047B7047C7
:101A100090B59BB000AF3B4B12221A60394B0822A5
:101A20001A61384B00229A60364B0022DA60364B3E
:101A3000DC7907213448FFF7A2FF03469C4223D1FB
:101A4000324B03221A70314B04225A70304B1B78F0
:101A5000013BDBB203F00F03DAB22C4B9A712D4B32
:101A60001B78002B08D107212848FFF788FF034681
:101A70001A46264BDA711BE007212448FFF77FFF47
:101A8000224B0022DA7113E0234A3B4614462068B9
:101A90006168A26807C3227B1A7007F10D03252233
:101AA0000021184603F003FF3B461846FFF792FE5D
:101AB0001A4A07F134031068516803C312891A8067
:101AC00007F13E0328220021184603F0F0FE07F13B
:101AD00034031846FFF77EFE0C491220FFF794FEF0
:101AE0000F4B0A4A07490F4801F0BEF8084B1B7814
:101AF00003F00F03DAB2064B1A7000BF6C37BD4615
:101B000090BD00BF94150020140000200C000020A0
:101B10005A2600205B2600208C6900089C6900087A
:101B20004C160020FC14002090B58FB000AF4F4B36
:101B3000A2221A604D4B08221A614C4B00229A6077
:101B40004A4B0022DA604A4B1B78002B46D1494BA6
:101B5000DC7907214748FFF712FF03469C421AD160
:101B6000454B01221A70444B02225A70424B1A789C
:101B7000414B5B781344DAB23F4B9A703F4B1A7873
:101B80003D4B9A7107213C48FFF7F9FE03461A4680
:101B9000394BDA7140E007213648FFF7F0FE034683
:101BA0001A46344BDA71344B01221A70324B02223E
:101BB0005A70314B1A78304B5B781344DAB22E4BA3
:101BC0009A702E4B1A782C4B9A7107212A48FFF7EE
:101BD000D6FE03461A46284BDA711DE0264B00223A
:101BE0001A70254B00225A70234B00229A70224B08
:101BF0000022DA70204B00221A711F4B00225A710A
:101C00001E4B1A781C4B9A7107211B48FFF7B7FE31
:101C100003461A46184BDA71194A3B1D1068516881
:101C200003C312891A8007F10E03282200211846E7
:101C300003F03DFE3B1D1846FFF7CCFD0E49A220E8
:101C4000FFF7E2FD0F4B0C4A08490F4801F00CF872
:101C50000A4B1B780133DBB203F00F03DAB2074BF8
:101C60001A7000BF3C37BD4690BD00BFF015002084
:101C70005B260020240000201C0000205A260020A3
:101C8000A86900085016002024150020B0B590B0B7
:101C900000AF78607B68424A934229D1414B424A67
:101CA00000213F4801F0B0F80346002B01D000F0BE
:101CB000E1F83C4B3C4A0021394801F0A5F83B4A89
:101CC00007F10C031068516803C312891A8007F1E9
:101CD000160328220021184603F0E9FD07F10C0342
:101CE0001846FFF777FD2F49A220FFF78DFD52E040
:101CF0007B682F4A93424ED12E4B2F4A00212C480D
:101D000001F082F80346002B01D000F0B3F8294B14
:101D1000DC7907212748FFF732FE03469C421ED19B
:101D2000244B254A0021224801F06EF8234A07F18E
:101D30000C031068516803C312891A8007F1160357
:101D400028220021184603F0B2FD07F10C031846C3
:101D5000FFF740FD17491220FFF756FD1BE0184B17
:101D600007F10C041D460FCD0FC40FCD0FC495E82D
:101D7000030020600434218002340B0C237007F12F
:101D8000330300221A605A60C3F8072007F10C03DE
:101D90001846FFF71FFD00BF4037BD46B0BD00BF6E
:101DA000FC14002014000020AC150020B4690008C9
:101DB000241500202400002008160020C069000817
:101DC000CC69000880B590B000AF0346FB80FB886B
:101DD000012B42D11420FFF7C5FD0121214801F05C
:101DE000CBFE0346002B38D11F4B1B78002B02D0B3
:101DF000012B18D031E01C4B01221A701B4A07F14D
:101E00000C031068516803C3127A1A7007F11503A6
:101E100029220021184603F04AFD07F10C03184659
:101E2000FFF7D8FC19E0104B00221A70104A07F196
:101E30000C031068516803C31189927A19809A7053
:101E400007F1170327220021184603F030FD07F1A0
:101E50000C031846FFF7BEFC00BF00BF4037BD466D
:101E600080BD00BF000002405B260020006A000821
:101E70000C6A000880B500AF72B600BF0248FFF7D9
:101E8000A9FC00BFFDE700BF186A000880B483B05A
:101E900000AF00237B60104B5B6C0F4A43F4804320
:101EA00053640D4B5B6C03F480437B607B680023C1
:101EB0003B60094B1B6C084A43F080531364064B8C
:101EC0001B6C03F080533B603B6800BF0C37BD4682
:101ED0005DF8047B704700BF0038024080B58CB0CD
:101EE00000AF786007F11C0300221A605A609A6004
:101EF000DA601A617B681B684A4A93423ED14A4BBA
:101F00001B680133484A1360474B1B68012B0DD1F6
:101F10000023BB61454B1B6C444A43F000731364C0
:101F2000424B1B6C03F00073BB61BB6900237B61F8
:101F30003E4B1B6B3D4A43F0010313633B4B1B6B52
:101F400003F001037B617B694FF4C053FB61022303
:101F50003B6200237B620323BB620923FB6207F120
:101F60001C031946324801F06BFC002202211420A8
:101F700001F09DFB142001F0B6FB4FE07B681B686D
:101F80002C4A93424AD100233B61284B1B6C274AC1
:101F900043F080631364254B1B6C03F080633B614B
:101FA0003B69214B1B6801331F4A13601E4B1B68A2
:101FB000012B0DD10023FB601C4B1B6C1B4A43F013
:101FC00000731364194B1B6C03F00073FB60FB6818
:101FD0000023BB60154B1B6B144A43F002031363D1
:101FE000124B1B6B03F00203BB60BB686023FB61F9
:101FF00002233B6200237B620323BB620923FB6253
:1020000007F11C0319460C4801F01AFC00220221BA
:10201000402001F04CFB402001F065FB00BF303751
:10202000BD4680BD006400406026002000380240AC
:1020300000000240006800400004024080B58AB001
:1020400000AF786007F1140300221A605A609A60AA
:10205000DA601A617B681B681D4A934234D1002301
:102060003B611C4B1B6C1B4A43F480231364194BCC
:102070001B6C03F480233B613B690023FB60154B21
:102080001B6B144A43F004031363124B1B6B03F0E6
:102090000403FB60FB684FF440637B610223BB6178
:1020A0000023FB6103233B6207237B6207F11403D8
:1020B0001946094801F0C4FB00220121272001F044
:1020C000F6FA272001F00FFB00BF2837BD4680BD80
:1020D00000480040003802400008024080B400AFD1
:1020E00000BFFDE780B400AF00BFFDE780B400AFE4
:1020F00000BFFDE780B400AF00BFFDE780B400AFD4
:1021000000BFFDE780B400AF00BFBD465DF8047BB3
:10211000704780B400AF00BFBD465DF8047B7047D8
:1021200080B400AF00BFBD465DF8047B704700007F
:1021300080B500AF00F034FB0D4B1B6801330C4A37
:1021400013600C4B1B88002B0BD0012201210A4885
:1021500001F02AFD074B1B88013B9AB2054B1A8000
:1021600004E000220121044801F01EFD00BF80BDF3
:102170005C260020E00000200004024080B500AF93
:10218000012001F02BFD00BF80BD000080B500AF35
:10219000184800F081FF184B184A0021154800F03C
:1021A00033FE0346002B23D1134B1B78072B09D892
:1021B000124B1B689BB210491846FFF725FB00F035
:1021C0009DF815E00C4B1B7803F0F003102B0FD09B
:1021D000094B1B7803F0F003302B09D1084B012287
:1021E0001A70064B1B689BB203491846FFF70CFB9D
:1021F00000BF80BDFC14002014000020AC1500209E
:102200005926002080B500AF044802F097FA012259
:102210000349024802F06DFA00BF80BD4C15002052
:102220005826002080B582B000AF2B4800F034FF64
:102230002A4B2B4A0021284800F0E6FD284B1B685A
:1022400026491846FEF78CF9FEF756FB254B03F599
:1022500080531B7A002B3BD008220021224803F038
:1022600026FB204B5B7803F0F003002B04D11D4BC1
:102270005B780133FB7101E00823FB711B4B0022EB
:102280001A7010E0194B1B781946184B1B781A4628
:10229000144B0B445978144B9954144B1B7801334D
:1022A000DAB2124B1A70114B1B78FA799A42E9D8BC
:1022B0000D4B1B7803F0F003202B03D10C4B0122B4
:1022C0001A7005E00B4B084A0B49034800F0CCFCA0
:1022D00000BF0837BD4680BD241500202400002023
:1022E00008160020E80400201C00002078260020AA
:1022F0005926002050160020F015002080B500AFB0
:10230000774B5B78672B40F0E880754B9B78012B0F
:1023100040F0E380724BDA78724B1A70704B1A7986
:10232000704B5A706E4B5A796E4B9A706C4B9A790F
:102330006C4BDA706B4B1A786A4B5B785340DAB2AD
:10234000694B1A70674B5A78664B9B781344DAB224
:10235000654B5A70634B9A78624BDB785340DAB224
:10236000614B9A705F4BDA785E4B1B781344DAB29C
:102370005D4BDA705B4B1A785A4B5B781343DAB2D9
:10238000594B1A71574B5A78564B9B781344DAB213
:10239000554B5A71534B9A78524BDB781343DAB250
:1023A000514B9A714F4BDA784E4B1B781344DAB28B
:1023B0004D4BDA714B4B1A784A4B5B781340DAB2CB
:1023C000494B1A72474B5A78464B9B781344DAB202
:1023D000454B5A72434B9A78424BDB781340DAB242
:1023E000414B9A723F4BDA783E4B1B781344DAB27A
:1023F0003D4BDA723B4B1A783A4B5B78D31ADAB220
:10240000394B1A73374B5A78364B9B781344DAB2F0
:10241000354B5A73334B9A78324BDB78D31ADAB296
:10242000314B9A732F4BDA782E4B1B781344DAB268
:102430002D4BDA7310212D4801F09EFB0346002B33
:1024400002D1294BFF22DA70294B67221A70284BE0
:1024500002225A70244B1A78254B9A70224B5A78D4
:10246000234BDA70204B9A78214B1A711E4BDA7885
:102470001F4B5A711C4B1A791D4B9A711A4B5A7982
:102480001B4BDA71184B9A79194B1A72164BDA7981
:10249000174B5A72144B1A7A154B9A72124B5A7A7E
:1024A000134BDA72104B9A7A114B1A730E4BDA7A7D
:1024B0000F4B5A730C4B1A7B0D4B9A730A4B5A7B7A
:1024C0000B4BDA73084B9A7B094B1A74064BDA7B79
:1024D000074B5A74074B12221A8000BF80BD00BF01
:1024E0001400002064260020682600200008024016
:1024F000581600205416002080B400AF012318465F
:10250000BD465DF8047B704780B582B000AF78604F
:10251000396003F01BFA034616221A604FF0FF33AE
:1025200018460837BD4680BD80B582B000AF7860E0
:102530004FF0FF317868FFF7E7FF00BFFDE780B598
:1025400086B000AFF860B9607A6000237B610AE072
:10255000AFF300800146BB685A1CBA60CAB21A7059
:102560007B6901337B617A697B689A42F0DB7B6827
:1025700018461837BD4680BD80B586B000AFF860FC
:10258000B9607A6000237B6109E0BB685A1CBA60BD
:102590001B781846AFF300807B6901337B617A6951
:1025A0007B689A42F1DB7B6818461837BD4680BDD0
:1025B00080B483B000AF78604FF0FF3318460C371B
:1025C000BD465DF8047B704780B483B000AF78608F
:1025D00039603B684FF400525A60002318460C37AC
:1025E000BD465DF8047B704780B483B000AF78606F
:1025F000012318460C37BD465DF8047B704780B454
:1026000085B000AFF860B9607A60002318461437CF
:10261000BD465DF8047B704780B586B000AF78603A
:10262000144A154BD31A7B617B693B61134B1B68C2
:10263000002B02D1114B124A1A60104B1A687B68AA
:1026400013443A699A4207D203F080F903460C22F8
:102650001A604FF0FF3309E0084B1B68FB60074B23
:102660001A687B681344054A1360FB6818461837DC
:10267000BD4680BD00000220000400007C26002032
:10268000D027002080B400AF064BD3F88830054A2D
:1026900043F47003C2F8883000BFBD465DF8047B88
:1026A000704700BF00ED00E0DFF834D00D480E4960
:1026B0000E4A002302E0D458C4500433C4188C429C
:1026C000F9D30B4A0B4C002301E013600432A24201
:1026D000FBD3FFF7D7FF03F03FF9FEF7C9FD7047C3
:1026E0000000022000000020B4000020886B0008D9
:1026F000B4000020D0270020FEE7000080B500AF26
:102700000E4B1B680D4A43F4007313600B4B1B68A0
:102710000A4A43F480631360084B1B68074A43F47A
:1027200080731360032000F0B7FF002000F008F86A
:10273000FFF7ACFB0023184680BD00BF003C024001
:1027400080B582B000AF7860124B1A68124B1B78CC
:1027500019464FF47A73B3FBF1F3B2FBF3F3184667
:1027600000F0CFFF0346002B01D001230EE07B6871
:102770000F2B0AD8002279684FF0FF3000F097FF46
:10278000064A7B681360002300E0012318460837DF
:10279000BD4680BD4C0000205400002050000020A9
:1027A00080B400AF064B1B781A46064B1B681344D7
:1027B000044A136000BFBD465DF8047B704700BF4C
:1027C000540000208026002080B400AF034B1B681B
:1027D0001846BD465DF8047B704700BF8026002088
:1027E00080B584B000AF7860FFF7EEFFB8607B681B
:1027F000FB60FB68B3F1FF3F05D00A4B1B781A461C
:10280000FB681344FB6000BFFFF7DEFF0246BB68B6
:10281000D31AFA689A42F7D800BF00BF1037BD46F6
:1028200080BD00BF5400002080B584B000AF786048
:102830007B68002B01D10123EDE07B6893F8203009
:10284000DBB2002B02D17868FFF748FB7B681B687E
:102850001A687B681B6842F001021A60FFF7B4FF38
:10286000F86012E0FFF7B0FF0246FB68D31A0A2BAC
:102870000BD97B685B6A43F400327B685A627B68E1
:10288000052283F820200123C5E07B681B685B6874
:1028900003F00103002BE5D07B681B681A687B6896
:1028A0001B6822F002021A60FFF78EFFF86012E048
:1028B000FFF78AFF0246FB68D31A0A2B0BD97B6805
:1028C0005B6A43F400327B685A627B68052283F8B6
:1028D000202001239FE07B681B685B6803F00203F4
:1028E000002BE5D17B681B7E012B08D17B681B6820
:1028F0001A687B681B6842F080021A6007E07B68F8
:102900001B681A687B681B6822F080021A607B686B
:102910005B7E012B08D17B681B681A687B681B688B
:1029200042F040021A6007E07B681B681A687B6807
:102930001B6822F040021A607B689B7E012B08D145
:102940007B681B681A687B681B6842F020021A606B
:1029500007E07B681B681A687B681B6822F020020E
:102960001A607B68DB7E012B08D17B681B681A68C4
:102970007B681B6822F010021A6007E07B681B6806
:102980001A687B681B6842F010021A607B681B7F24
:10299000012B08D17B681B681A687B681B6842F0B2
:1029A00008021A6007E07B681B681A687B681B686E
:1029B00022F008021A607B685B7F012B08D17B68DC
:1029C0001B681A687B681B6842F004021A6007E003
:1029D0007B681B681A687B681B6822F004021A6017
:1029E0007B689A687B68DB681A437B681B691A43BB
:1029F0007B685B6942EA03017B685B685A1E7B68FF
:102A00001B680A43DA617B6800225A627B680122F4
:102A100083F82020002318461037BD4680BD0000F3
:102A200080B487B000AF786039607B681B687B61D9
:102A30007B6893F82030FB74FB7C012B03D0FB7C7C
:102A4000022B40F0BE80654B7B617B69D3F800327E
:102A500043F001027B69C3F800227B69D3F800329E
:102A600023F47C527B69C3F800227B69D3F80022EF
:102A70003B685B6A1B021A437B69C3F800223B6810
:102A80005B6903F01F03012202FA03F3FB607B6919
:102A9000D3F81C22FB68DB431A407B69C3F81C2275
:102AA0003B68DB69002B23D17B69D3F80C22FB68E0
:102AB000DB431A407B69C3F80C223B68DB681904CE
:102AC0003B685B689BB23A68526919437B6948323C
:102AD00043F832103B689B6819043B681B689AB244
:102AE0003B685B690A4379694833DB000B445A60F1
:102AF0003B68DB69012B22D17B69D3F80C22FB6890
:102B00001A437B69C3F80C223B681B6819043B68B5
:102B10005B689BB23A68526919437B69483243F853
:102B200032103B689B6819043B68DB689AB23B68CB
:102B30005B690A4379694833DB000B445A603B68A0
:102B40009B69002B09D17B69D3F80422FB68DB4326
:102B50001A407B69C3F8042207E07B69D3F804229A
:102B6000FB681A437B69C3F804223B681B69002B8E
:102B700009D17B69D3F81422FB68DB431A407B69D7
:102B8000C3F8142207E07B69D3F81422FB681A43C8
:102B90007B69C3F814223B681B6A012B07D17B6950
:102BA000D3F81C22FB681A437B69C3F81C227B699B
:102BB000D3F8003223F001027B69C3F8002200231E
:102BC00006E07B685B6A43F480227B685A620123DB
:102BD00018461C37BD465DF8047B70470064004012
:102BE00080B584B000AF78607B6893F82030DBB2AA
:102BF000012B2ED17B68022283F820207B681B6882
:102C00001A687B681B6822F001021A60FFF7DCFD7E
:102C1000F86012E0FFF7D8FD0246FB68D31A0A2BD2
:102C20000BD97B685B6A43F400327B685A627B682D
:102C3000052283F82020012312E07B681B685B6873
:102C400003F00103002BE5D17B6800225A620023C8
:102C500006E07B685B6A43F400227B685A620123CA
:102C600018461037BD4680BD80B489B000AFF8600B
:102C7000B9607A603B60FB6893F82030FB77FB68B3
:102C80001B689B68BB61FB7F012B03D0FB7F022B82
:102C900040F0AD80BB6903F08063002B0AD1BB69B3
:102CA00003F00063002B05D1BB6903F08053002BB8
:102CB00000F09580BB691B0E03F003037B610122CA
:102CC0007B699A403B681A60BB689B68002B0DD1FA
:102CD000BB681B685A05BB68DB68F96809681A435A
:102CE0007B6918331B010B441A600FE0BB685B68FB
:102CF000DA00BB689B681A43BB68DB68F96809683F
:102D00001A437B6918331B010B441A60FB6819686E
:102D1000BB681A697B6918331B010B4404331A60C2
:102D2000BB681B7D012B11D1FB681A687B691833C6
:102D30001B01134404331B68FA68116843F4807262
:102D40007B6918331B010B4404331A607B6807331B
:102D50001B781A067B6806331B781B041A437B68B2
:102D600005331B781B0213437A680432127810462D
:102D7000FA68116843EA00027B691B010B4403F502
:102D8000C6731A607B6803331B781A067B680233AC
:102D90001B781B041A437B6801331B781B02134307
:102DA0007A6812781046FA68116843EA00027B6973
:102DB0001B010B4403F5C4731A60FB681A687B6936
:102DC00018331B0113441B68FA68116843F00102B1
:102DD0007B6918331B010B441A6000230EE0FB686B
:102DE0005B6A43F40012FB685A62012306E0FB6849
:102DF0005B6A43F48022FB685A6201231846243739
:102E0000BD465DF8047B704780B487B000AFF860C2
:102E1000B9607A603B60FB6893F82030FB75FB7DFE
:102E2000012B03D0FB7D022B40F00381BB68002BFC
:102E30000ED1FB681B68DB6803F00303002B16D17F
:102E4000FB685B6A43F40012FB685A620123F7E0F7
:102E5000FB681B681B6903F00303002B07D1FB68A9
:102E60005B6A43F40012FB685A620123E8E0FB68E6
:102E70001A68BB681B331B0113441B6803F0040270
:102E80007B689A607B689B68002B0CD1FB681A6892
:102E9000BB681B331B0113441B685B0DC3F30A02A1
:102EA0007B681A600BE0FB681A68BB681B331B0168
:102EB00013441B68DB0823F060427B685A60FB68A0
:102EC0001A68BB681B331B0113441B6803F0020222
:102ED0007B68DA60FB681A68BB681B331B0113440C
:102EE00004331B6803F00803002B03D07B6808221F
:102EF0001A610BE0FB681A68BB681B331B011344A3
:102F000004331B6803F00F027B681A61FB681A68C0
:102F1000BB681B331B01134404331B681B0ADAB262
:102F20007B689A61FB681A68BB681B331B011344FA
:102F300004331B681B0C9AB27B685A61FB681A68E1
:102F4000BB681B01134403F5DC731B68DAB23B68F2
:102F50001A70FB681A68BB681B01134403F5DC7325
:102F60001B681A0A3B680133D2B21A70FB681A68F0
:102F7000BB681B01134403F5DC731B681A0C3B6828
:102F80000233D2B21A70FB681A68BB681B01134483
:102F900003F5DC731B681A0E3B680333D2B21A7058
:102FA000FB681A68BB681B01134403F5DE731A68DB
:102FB0003B680433D2B21A70FB681A68BB681B0105
:102FC000134403F5DE731B681A0A3B680533D2B25B
:102FD0001A70FB681A68BB681B01134403F5DE73A3
:102FE0001B681A0C3B680633D2B21A70FB681A6869
:102FF000BB681B01134403F5DE731B681A0E3B68A4
:103000000733D2B21A70BB68002B08D1FB681B686B
:10301000DA68FB681B6842F02002DA6007E0FB68B0
:103020001B681A69FB681B6842F020021A610023C2
:1030300006E0FB685B6A43F48022FB685A62012366
:1030400018461C37BD465DF8047B704780B485B0D8
:1030500000AF786039607B6893F82030FB73FB7BAE
:10306000012B02D0FB7B022B09D17B681B685969BD
:103070007B681B683A680A435A61002306E07B6854
:103080005B6A43F480227B685A6201231846143736
:10309000BD465DF8047B704780B58AB000AF7860AC
:1030A00000237B627B681B685B693B627B681B68F3
:1030B0005B68FB617B681B689B68BB617B681B6806
:1030C000DB687B617B681B681B693B617B681B68F5
:1030D0009B69FB603B6A03F00103002B7CD0BB695A
:1030E00003F00103002B23D07B681B6801229A6048
:1030F000BB6903F00203002B03D0786800F083F96A
:1031000016E0BB6903F00403002B04D07B6A43F490
:1031100000637B620CE0BB6903F00803002B04D062
:103120007B6A43F480537B6202E0786800F089F99F
:10313000BB6903F48073002B24D07B681B684FF4B9
:1031400080729A60BB6903F40073002B03D0786827
:1031500000F063F916E0BB6903F48063002B04D030
:103160007B6A43F400537B620CE0BB6903F40063A9
:10317000002B04D07B6A43F480437B6202E07868D2
:1031800000F069F9BB6903F48033002B24D07B681D
:103190001B684FF480329A60BB6903F40033002B44
:1031A00003D0786800F043F916E0BB6903F480238C
:1031B000002B04D07B6A43F400437B620CE0BB69C4
:1031C00003F40023002B04D07B6A43F480337B623A
:1031D00002E0786800F049F93B6A03F00803002B2D
:1031E0000CD07B6903F01003002B07D07B6A43F4FB
:1031F00000737B627B681B681022DA603B6A03F015
:103200000403002B0BD07B6903F00803002B06D0CE
:103210007B681B680822DA60786800F030F93B6A46
:1032200003F00203002B09D07B681B68DB6803F006
:103230000303002B02D07868FEF728FD3B6A03F0F9
:103240004003002B0CD03B6903F01003002B07D088
:103250007B6A43F480637B627B681B6810221A617F
:103260003B6A03F02003002B0BD03B6903F00803FB
:10327000002B06D07B681B6808221A61786800F072
:1032800012F93B6A03F01003002B09D07B681B681E
:103290001B6903F00303002B02D0786800F0F9F8F3
:1032A0003B6A03F40033002B0BD0FB6903F01003DF
:1032B000002B06D07B681B6810225A60786800F0EB
:1032C000FCF83B6A03F48033002B0BD0FB6903F05E
:1032D0000803002B06D07B681B6808225A607868B8
:1032E00000F0F5F83B6A03F40043002B7BD0FB6948
:1032F00003F00403002B72D03B6A03F48073002BAD
:1033000008D0FB6803F00103002B03D07B6A43F075
:1033100001037B623B6A03F40073002B08D0FB6857
:1033200003F00203002B03D07B6A43F002037B62AD
:103330003B6A03F48063002B08D0FB6803F00403AE
:10334000002B03D07B6A43F004037B623B6A03F4E7
:103350000063002B43D0FB6803F07003002B3ED0CA
:10336000FB6803F07003602B2BD0602B2ED8502B02
:1033700022D0502B2AD8402B19D0402B26D8302BC6
:1033800010D0302B22D8102B02D0202B05D01DE0DE
:103390007B6A43F008037B6219E07B6A43F0100309
:1033A0007B6214E07B6A43F020037B620FE07B6A60
:1033B00043F040037B620AE07B6A43F080037B6258
:1033C00005E07B6A43F480737B6200E000BF7B68AA
:1033D0001B689A697B681B6822F070029A617B689F
:1033E0001B6804225A607B6A002B08D07B685A6AEB
:1033F0007B6A1A437B685A62786800F072F800BFF3
:103400002837BD4680BD80B483B000AF786000BF70
:103410000C37BD465DF8047B704780B483B000AFC5
:10342000786000BF0C37BD465DF8047B704780B400
:1034300083B000AF786000BF0C37BD465DF8047BF9
:10344000704780B483B000AF786000BF0C37BD46D2
:103450005DF8047B704780B483B000AF786000BF34
:103460000C37BD465DF8047B704780B483B000AF75
:10347000786000BF0C37BD465DF8047B704780B4B0
:1034800083B000AF786000BF0C37BD465DF8047BA9
:10349000704780B483B000AF786000BF0C37BD4682
:1034A0005DF8047B704780B483B000AF786000BFE4
:1034B0000C37BD465DF8047B704780B483B000AF25
:1034C000786000BF0C37BD465DF8047B704780B460
:1034D00083B000AF786000BF0C37BD465DF8047B59
:1034E000704780B483B000AF786000BF0C37BD4632
:1034F0005DF8047B7047000080B485B000AF786051
:103500007B6803F00703FB600C4BDB68BB60BA68A9
:103510004FF6FF031340BB60FB681A02BB681343FE
:1035200043F0BF6343F40033BB60044ABB68D3601D
:1035300000BF1437BD465DF8047B704700ED00E026
:1035400080B400AF044BDB681B0A03F00703184686
:10355000BD465DF8047B704700ED00E080B483B0A9
:1035600000AF0346FB7197F90730002B0BDBFB79AB
:1035700003F01F02074997F907305B09012000FAA1
:1035800002F241F8232000BF0C37BD465DF8047BF2
:10359000704700BF00E100E080B483B000AF034695
:1035A0003960FB7197F90730002B0ADB3B68DAB210
:1035B0000C4997F907301201D2B20B4483F800236B
:1035C0000AE03B68DAB20849FB7903F00F03043BD9
:1035D0001201D2B20B441A7600BF0C37BD465DF81B
:1035E000047B704700E100E000ED00E080B489B0AA
:1035F00000AFF860B9607A60FB6803F00703FB6115
:10360000FB69C3F10703042B28BF0423BB61FB69DB
:103610000433062B02D9FB69033B00E000237B61E6
:103620004FF0FF32BB6902FA03F3DA43BB681A407A
:103630007B699A404FF0FF317B6901FA03F3D9436C
:103640007B680B40134318462437BD465DF8047B66
:103650007047000080B582B000AF78607B68013BA6
:10366000B3F1807F01D301230FE00A4A7B68013B5D
:1036700053600F214FF0FF30FFF78EFF054B002204
:103680009A60044B07221A60002318460837BD468B
:1036900080BD00BF10E000E080B582B000AF786070
:1036A0007868FFF729FF00BF0837BD4680BD80B5A9
:1036B00086B000AF0346B9607A60FB7300237B617C
:1036C000FFF73EFF78617A68B9687869FFF78EFF87
:1036D000024697F90F3011461846FFF75DFF00BF0D
:1036E0001837BD4680BD80B582B000AF0346FB7180
:1036F00097F907301846FFF731FF00BF0837BD467E
:1037000080BD80B582B000AF78607868FFF7A2FF17
:10371000034618460837BD4680BD80B584B000AF6B
:1037200078607B689B6DFB60FFF74EF8B8607B6844
:1037300093F83530DBB2022B08D07B6880225A65C3
:103740007B68002283F83420012352E07B681B68E9
:103750001A687B681B6822F016021A607B681B6877
:103760005A697B681B6822F080025A617B681B6C77
:10377000002B03D17B689B6C002B07D07B681B68F8
:103780001A687B681B6822F008021A607B681B6855
:103790001A687B681B6822F001021A6013E0FFF7C9
:1037A00013F80246BB68D31A052B0CD97B6820227C
:1037B0005A657B68032283F835207B68002283F8F2
:1037C0003420032315E07B681B681B6803F00103AA
:1037D000002BE4D17B68DB6D3F229A40FB689A6046
:1037E0007B68012283F835207B68002283F834202F
:1037F000002318461037BD4680BD80B483B000AFAB
:1038000078607B6893F83530DBB2022B04D07B689C
:1038100080225A6501230CE07B68052283F835205D
:103820007B681B681A687B681B6822F001021A60BB
:10383000002318460C37BD465DF8047B7047000036
:1038400080B489B000AF7860396000237B610023C9
:103850003B610023BB610023FB616BE10122FB693B
:1038600002FA03F37B613B681B687A6913403B6192
:103870003A697B699A4240F05A813B685B6803F081
:103880000303012B05D03B685B6803F00303022BA5
:1038900030D17B689B68BB61FB695B00032202FA45
:1038A00003F3DB43BA691340BB613B68DA68FB6929
:1038B0005B0002FA03F3BA691343BB617B68BA6920
:1038C0009A607B685B68BB610122FB6902FA03F3C3
:1038D000DB43BA691340BB613B685B681B0903F0BB
:1038E0000102FB6902FA03F3BA691343BB617B6807
:1038F000BA695A603B685B6803F00303032B17D077
:103900007B68DB68BB61FB695B00032202FA03F39F
:10391000DB43BA691340BB613B689A68FB695B0093
:1039200002FA03F3BA691343BB617B68BA69DA60D0
:103930003B685B6803F00303022B23D1FB69DA08C1
:103940007B68083253F82230BB61FB6903F0070340
:103950009B000F2202FA03F3DB43BA691340BB61F9
:103960003B681A69FB6903F007039B0002FA03F343
:10397000BA691343BB61FB69DA087B680832B9692D
:1039800043F822107B681B68BB61FB695B00032264
:1039900002FA03F3DB43BA691340BB613B685B681F
:1039A00003F00302FB695B0002FA03F3BA691343F5
:1039B000BB617B68BA691A603B685B6803F440339B
:1039C000002B00F0B4800023FB60604B5B6C5F4A0F
:1039D00043F4804353645D4B5B6C03F48043FB60B2
:1039E000FB685B4AFB699B08023352F82330BB61DA
:1039F000FB6903F003039B000F2202FA03F3DB438E
:103A0000BA691340BB617B68524A93422BD07B68F2
:103A1000514A934225D07B68504A93421FD07B681D
:103A20004F4A934219D07B684E4A934213D07B6829
:103A30004D4A93420DD07B684C4A934207D07B6835
:103A40004B4A934201D107230EE008230CE00623E2
:103A50000AE0052308E0042306E0032304E0022330
:103A600002E0012300E00023FA6902F00302920061
:103A70009340BA691343BB613549FB699B08023324
:103A8000BA6941F823203B4B9B68BB613B69DB4330
:103A9000BA691340BB613B685B6803F48013002B79
:103AA00003D0BA693B691343BB61324ABB69936077
:103AB000304BDB68BB613B69DB43BA691340BB61D8
:103AC0003B685B6803F40013002B03D0BA693B69C1
:103AD0001343BB61274ABB69D360264B5B68BB615C
:103AE0003B69DB43BA691340BB613B685B6803F425
:103AF0000033002B03D0BA693B691343BB611D4AF5
:103B0000BB6953601B4B1B68BB613B69DB43BA69F4
:103B10001340BB613B685B6803F48033002B03D028
:103B2000BA693B691343BB61124ABB691360FB6905
:103B30000133FB61FB690F2B7FF690AE00BF00BF26
:103B40002437BD465DF8047B704700BF0038024053
:103B5000003801400000024000040240000802401A
:103B6000000C024000100240001402400018024005
:103B7000001C0240003C014080B485B000AF78607A
:103B80000B467B807B681A697B881340002B02D030
:103B90000123FB7301E00023FB73FB7B1846143702
:103BA000BD465DF8047B704780B483B000AF786099
:103BB0000B467B8013467B707B78002B03D07A8882
:103BC0007B689A6103E07B881A047B689A6100BF76
:103BD0000C37BD465DF8047B7047000080B582B0AD
:103BE00000AF0346FB80084B5A69FB881340002B4B
:103BF00006D0054AFB885361FB881846FEF7E2F8B9
:103C000000BF0837BD4680BD003C014080B586B08E
:103C100000AF78607B68002B01D1012367E27B68ED
:103C20001B6803F00103002B75D0884B9B6803F0E1
:103C30000C03042B0CD0854B9B6803F00C03082B62
:103C400012D1824B5B6803F48003B3F5800F0BD174
:103C50007E4B1B6803F40033002B5BD07B685B68F2
:103C6000002B57D1012342E27B685B68B3F5803FAC
:103C700006D1764B1B68754A43F4803313601DE010
:103C80007B685B68B3F5A02F0CD1704B1B686F4A43
:103C900043F4802313606D4B1B686C4A43F48033FC
:103CA00013600BE0694B1B68684A23F48033136090
:103CB000664B1B68654A23F4802313607B685B684E
:103CC000002B13D0FEF780FD386108E0FEF77CFD85
:103CD00002463B69D31A642B01D9032307E25B4BED
:103CE0001B6803F40033002BF0D014E0FEF76CFDEA
:103CF000386108E0FEF768FD02463B69D31A642B81
:103D000001D90323F3E1514B1B6803F40033002B6B
:103D1000F0D100E000BF7B681B6803F00203002BBA
:103D200063D04A4B9B6803F00C03002B0BD0474B2E
:103D30009B6803F00C03082B1CD1444B5B6803F415
:103D40008003002B16D1414B1B6803F00203002BAC
:103D500005D07B68DB68012B01D00123C7E13B4B19
:103D60001B6823F0F8027B681B69DB0037491343AB
:103D70000B603AE07B68DB68002B20D0344B0122DB
:103D80001A60FEF721FD386108E0FEF71DFD0246CE
:103D90003B69D31A022B01D90323A8E12B4B1B68E3
:103DA00003F00203002BF0D0284B1B6823F0F8022D
:103DB0007B681B69DB00254913430B6015E0244B2E
:103DC00000221A60FEF700FD386108E0FEF7FCFCF7
:103DD00002463B69D31A022B01D9032387E11B4B0F
:103DE0001B6803F00203002BF0D17B681B6803F013
:103DF0000803002B36D07B685B69002B16D0154B6F
:103E000001221A60FEF7E0FC386108E0FEF7DCFCF6
:103E100002463B69D31A022B01D9032367E10B4BFE
:103E20005B6F03F00203002BF0D01BE0094B002274
:103E30001A60FEF7C9FC38610EE0FEF7C5FC0246C9
:103E40003B69D31A022B07D9032350E10038024003
:103E500000004742800E4742884B5B6F03F002032D
:103E6000002BEAD17B681B6803F00403002B00F0F1
:103E700097800023FB75814B1B6C03F08053002B54
:103E80000FD10023BB607D4B1B6C7C4A43F08053F9
:103E900013647A4B1B6C03F08053BB60BB68012337
:103EA000FB75774B1B6803F48073002B18D1744BA0
:103EB0001B68734A43F480731360FEF785FC386116
:103EC00008E0FEF781FC02463B69D31A022B01D9B8
:103ED00003230CE16A4B1B6803F48073002BF0D0C2
:103EE0007B689B68012B06D1644B1B6F634A43F0D0
:103EF000010313671CE07B689B68052B0CD15F4BAB
:103F00001B6F5E4A43F0040313675C4B1B6F5B4AF5
:103F100043F0010313670BE0584B1B6F574A23F024
:103F200001031367554B1B6F544A23F004031367B7
:103F30007B689B68002B15D0FEF746FC38610AE0D1
:103F4000FEF742FC02463B69D31A41F288329342A3
:103F500001D90323CBE0494B1B6F03F00203002B75
:103F6000EED014E0FEF730FC38610AE0FEF72CFCDE
:103F700002463B69D31A41F28832934201D90323A6
:103F8000B5E03E4B1B6F03F00203002BEED1FB7D2F
:103F9000012B05D1394B1B6C384A23F08053136435
:103FA0007B689B69002B00F0A180344B9B6803F079
:103FB0000C03082B5CD07B689B69022B41D1314BF1
:103FC00000221A60FEF700FC386108E0FEF7FCFBF7
:103FD00002463B69D31A022B01D9032387E0274B02
:103FE0001B6803F00073002BF0D17B68DA697B68F3
:103FF0001B6A1A437B685B6A9B011A437B689B6A56
:104000005B08013B1B041A437B68DB6A1B061B49E8
:1040100013434B601B4B01221A60FEF7D5FB38613E
:1040200008E0FEF7D1FB02463B69D31A022B01D907
:1040300003235CE0114B1B6803F00073002BF0D0EE
:1040400054E0104B00221A60FEF7BEFB386108E016
:10405000FEF7BAFB02463B69D31A022B01D90323B0
:1040600045E0064B1B6803F00073002BF0D13DE0E8
:104070007B689B69012B07D1012338E0003802409F
:1040800000700040600047421B4B5B68FB607B6830
:104090009B69012B28D0FB6803F480027B68DB69F5
:1040A0009A4221D1FB6803F03F027B681B6A9A4267
:1040B0001AD1FA6847F6C07313407A68526A9201BF
:1040C000934211D1FB6803F440327B689B6A5B0822
:1040D000013B1B049A4207D1FB6803F070627B68C6
:1040E000DB6A1B069A4201D0012300E00023184638
:1040F0001837BD4680BD00BF0038024080B584B08F
:1041000000AF786039607B68002B01D10123CCE0DF
:10411000684B1B6803F007033A689A420CD9654B59
:104120003A68D2B21A70634B1B6803F007033A680F
:104130009A4201D00123B8E07B681B6803F00203B8
:10414000002B20D07B681B6803F00403002B05D0F4
:10415000594B9B68584A43F4E05393607B681B6853
:1041600003F00803002B05D0534B9B68524A43F4DD
:1041700060439360504B9B6823F0F0027B689B6820
:104180004D4913438B607B681B6803F00103002BD0
:1041900044D07B685B68012B07D1474B1B6803F455
:1041A0000033002B19D101237FE07B685B68022B71
:1041B00003D07B685B68032B07D13F4B1B6803F080
:1041C0000073002B09D101236FE03B4B1B6803F008
:1041D0000203002B01D1012367E0374B9B6823F0DA
:1041E00003027B685B68344913438B60FEF7ECFA8B
:1041F000F8600AE0FEF7E8FA0246FB68D31A41F2DB
:104200008832934201D903234FE02B4B9B6803F084
:104210000C027B685B689B009A42EBD1254B1B68C4
:1042200003F007033A689A420CD2224B3A68D2B2A2
:104230001A70204B1B6803F007033A689A4201D0BA
:10424000012332E07B681B6803F00403002B08D0D5
:10425000194B9B6823F4E0527B68DB6816491343D3
:104260008B607B681B6803F00803002B09D0124B9E
:104270009B6823F460427B681B69DB000E49134393
:104280008B6000F021F802460B4B9B681B0903F082
:104290000F030A49CB5C22FA03F3094A1360094B66
:1042A0001B681846FEF74CFA002318461037BD4627
:1042B00080BD00BF003C024000380240806A000818
:1042C0004C000020500000202DE9B04F94B000AF0A
:1042D00000237B640023FB6400233B640023BB6456
:1042E000794B9B6803F00C03082B0DD0082B00F2D0
:1042F000E180002B02D0042B03D0DBE0734BBB64C6
:10430000DBE0734BBB64D8E06F4B5B6803F03F03AB
:104310007B646D4B5B6803F48003002B63D06A4BB6
:104320005B689B090022BB63FA63BB6BC3F30803A2
:104330003B6300237B63D7E90C4522462B464FF0B5
:1043400000004FF00001590141EAD26150010246DC
:104350000B462146511A3961294663EB01037B6103
:104360004FF000024FF00003D7E904AB59468B0130
:10437000514643EA916351468A015146B2EB010826
:10438000594663EB01094FF000024FF000034FEA7A
:10439000C90343EA58734FEAC80290469946234638
:1043A00018EB0303BB602B4649EB0303FB604FF0A4
:1043B00000024FF00003D7E9024529464B0221468F
:1043C00043EAD15321464A02104619467B6C00222B
:1043D000BB62FA62D7E90A23FBF74AFF02460B46A3
:1043E0001346FB6458E0384B5B689B090022184673
:1043F0001146C0F308033B6200237B62D7E90889BA
:1044000042464B464FF000004FF00001590141EA8F
:10441000D261500102460B464146B2EB010A4946C1
:1044200063EB010B4FF000024FF000034FEA8B13D8
:1044300043EA9A634FEA8A12B2EB0A0463EB0B0574
:104440004FF000024FF00003EB0043EA5473E20028
:1044500014461D464346E3183B604B4645EB0303B9
:104460007B604FF000024FF00003D7E9004529467A
:104470008B02214643EA915321468A02104619468F
:104480007B6C0022BB61FA61D7E90623FBF7F0FEE3
:1044900002460B461346FB640B4B5B681B0C03F098
:1044A000030301335B003B64FA6C3B6CB2FBF3F338
:1044B000BB6402E0054BBB6400BFBB6C18465037C1
:1044C000BD46BDE8B08F00BF003802400024F400B4
:1044D00000127A0080B400AF034B1B681846BD463B
:1044E0005DF8047B704700BF4C00002080B500AF32
:1044F000FFF7F0FF0246054B9B689B0A03F007039A
:104500000349CB5C22FA03F3184680BD0038024011
:10451000906A000880B500AFFFF7DCFF0246054B4C
:104520009B685B0B03F007030349CB5C22FA03F3A0
:10453000184680BD00380240906A000880B582B0FD
:1045400000AF78607B68002B01D1012342E07B68DB
:1045500093F84130DBB2002B06D17B68002283F850
:1045600040207868FDF76AFD7B68242283F84120AB
:104570007B681B68DA687B681B6822F40052DA608B
:10458000786800F0BDFD7B681B681A697B681B6852
:1045900022F490421A617B681B685A697B681B6829
:1045A00022F02A025A617B681B68DA687B681B6804
:1045B00042F40052DA607B6800225A647B68202251
:1045C00083F841207B68202283F842207B68002208
:1045D0005A63002318460837BD4680BD80B58AB0AF
:1045E00002AFF860B9603B601346FB8000237B613B
:1045F000FB6893F84130DBB2202B75D1BB68002BF0
:1046000002D0FB88002B01D101236EE0FB68002261
:104610005A64FB68212283F84120FEF7D5F87861BF
:10462000FB68FA889A84FB68FA88DA84FB689B68DE
:10463000B3F5805F08D1FB681B69002B04D1002310
:10464000FB61BB68BB6103E0BB68FB610023BB612E
:104650002EE03B6800937B6900228021F86800F01F
:104660001FFB0346002B05D0FB68202283F8412066
:1046700003233AE0FB69002B0BD1BB691B881A4668
:10468000FB681B68C2F308025A60BB690233BB6156
:1046900007E0FB691A78FB681B685A60FB69013305
:1046A000FB61FB68DB8C9BB2013B9AB2FB68DA844E
:1046B000FB68DB8C9BB2002BCBD13B6800937B6902
:1046C00000224021F86800F0EBFA0346002B05D0E9
:1046D000FB68202283F84120032306E0FB682022A8
:1046E00083F84120002300E0022318462037BD460E
:1046F00080BD80B584B000AFF860B9601346FB8020
:10470000FB6893F84230DBB2202B12D1BB68002B40
:1047100002D0FB88002B01D101230BE0FB680022B3
:104720001A63FB881A46B968F86800F012FB034662
:1047300000E0022318461037BD4680BD80B5BAB0F0
:1047400000AF78607B681B681B68C7F8E4307B6843
:104750001B68DB68C7F8E0307B681B685B69C7F8DB
:10476000DC300023C7F8D8300023C7F8D430D7F89E
:10477000E43003F00F03C7F8D830D7F8D830002B57
:104780000FD1D7F8E43003F02003002B09D0D7F87D
:10479000E03003F02003002B03D0786800F0F2FB38
:1047A0005BE2D7F8D830002B00F0DE80D7F8DC30A1
:1047B00003F00103002B06D1D7F8E03003F4907327
:1047C000002B00F0D180D7F8E43003F00103002B78
:1047D0000BD0D7F8E03003F48073002B05D07B6852
:1047E0005B6C43F001027B685A64D7F8E43003F055
:1047F0000403002B0BD0D7F8DC3003F00103002BAF
:1048000005D07B685B6C43F002027B685A64D7F882
:10481000E43003F00203002B0BD0D7F8DC3003F0B8
:104820000103002B05D07B685B6C43F004027B68BE
:104830005A64D7F8E43003F00803002B11D0D7F8FE
:10484000E03003F02003002B05D1D7F8DC3003F073
:104850000103002B05D07B685B6C43F008027B688A
:104860005A647B685B6C002B00F0F281D7F8E4306F
:1048700003F02003002B08D0D7F8E03003F020032A
:10488000002B02D0786800F07DFB7B681B685B69B9
:1048900003F04003402B0CBF01230023DBB2C7F819
:1048A000D4307B685B6C03F00803002B03D1D7F88E
:1048B000D430002B4FD0786800F085FA7B681B68F5
:1048C0005B6903F04003402B41D17B681B681433C4
:1048D000C7F89C30D7F89C3053E8003FC7F89830B1
:1048E000D7F8983023F04003C7F8D0307B681B68B6
:1048F0001433D7F8D020C7F8A820C7F8A430D7F8C9
:10490000A410D7F8A82041E80023C7F8A030D7F8B2
:10491000A030002BD9D17B68DB6B002B13D07B68D8
:10492000DB6B7E4A1A657B68DB6B1846FEF765FF1A
:104930000346002B16D07B68DB6B1B6D7A68D26B4D
:10494000104698470EE0786800F094F90AE078681D
:1049500000F090F906E0786800F08CF97B6800229E
:104960005A6475E100BF73E17B681B6B012B40F05B
:104970004F81D7F8E43003F01003002B00F048819A
:10498000D7F8E03003F01003002B00F04181002342
:10499000BB607B681B681B68BB607B681B685B68CF
:1049A000BB60BB687B681B685B6903F04003402BFE
:1049B00040F0B6807B68DB6B1B685B68A7F8BE3095
:1049C000B7F8BE30002B00F045817B689B8DB7F8AF
:1049D000BE209A4280F03E817B68B7F8BE20DA851F
:1049E0007B68DB6BDB69B3F5807F00F088807B68D8
:1049F0001B680C33C7F88830D7F8883053E8003F7D
:104A0000C7F88430D7F8843023F48073C7F8B830FF
:104A10007B681B680C33D7F8B820C7F89420C7F818
:104A20009030D7F89010D7F8942041E80023C7F8C9
:104A30008C30D7F88C30002BD9D17B681B681433AD
:104A40007B677B6F53E8003F3B673B6F23F00103BD
:104A5000C7F8B4307B681B681433D7F8B420C7F8A4
:104A60008020FB67F96FD7F8802041E80023BB67FF
:104A7000BB6F002BE1D17B681B6814333B663B6E38
:104A800053E8003FFB65FB6D23F04003C7F8B030EF
:104A90007B681B681433D7F8B020FA66BB66B96E22
:104AA000FA6E41E800237B667B6E002BE3D17B68C6
:104AB000202283F842207B6800221A637B681B68EF
:104AC0000C33FB64FB6C53E8003FBB64BB6C23F00E
:104AD0001003C7F8AC307B681B680C33D7F8AC20E8
:104AE000BA657B65796DBA6D41E800233B653B6D26
:104AF000002BE3D17B68DB6B1846FEF70EFE7B686C
:104B000002225A637B689A8D7B68DB8D9BB2D31A35
:104B10009BB21946786800F0B7F89BE08D4E00080C
:104B20007B689A8D7B68DB8D9BB2D31AA7F8CE3059
:104B30007B68DB8D9BB2002B00F08E80B7F8CE3007
:104B4000002B00F089807B681B680C33BB63BB6B58
:104B500053E8003F7B637B6B23F49073C7F8C83046
:104B60007B681B680C33D7F8C8207A643B64396CC7
:104B70007A6C41E80023FB63FB6B002BE3D17B687D
:104B80001B6814337B627B6A53E8003F3B623B6ADD
:104B900023F00103C7F8C4307B681B681433D7F8CF
:104BA000C4203A63FB62F96A3A6B41E80023BB62B6
:104BB000BB6A002BE3D17B68202283F842207B680C
:104BC00000221A637B681B680C333B613B6953E826
:104BD000003FFB60FB6823F01003C7F8C0307B6820
:104BE0001B680C33D7F8C020FA61BB61B969FA6958
:104BF00041E800237B617B69002BE3D17B680222C3
:104C00005A63B7F8CE301946786800F03DF823E0D3
:104C1000D7F8E43003F08003002B09D0D7F8E03058
:104C200003F08003002B03D0786800F043F914E010
:104C3000D7F8E43003F04003002B0ED0D7F8E03073
:104C400003F04003002B08D0786800F083F904E0FB
:104C500000BF02E000BF00E000BFE837BD4680BDF6
:104C600080B483B000AF786000BF0C37BD465DF8FC
:104C7000047B704780B483B000AF786000BF0C370E
:104C8000BD465DF8047B704780B483B000AF7860A8
:104C90000B467B8000BF0C37BD465DF8047B704738
:104CA00080B586B000AFF860B9603B601346FB7119
:104CB0003BE03B6AB3F1FF3F37D0FDF785FD02468D
:104CC0003B68D31A3A6A9A4202D33B6A002B01D15D
:104CD00003233AE0FB681B68DB6803F00403002B46
:104CE00023D0BB68802B20D0BB68402B1DD0FB6835
:104CF0001B681B6803F00803082B16D100237B6197
:104D0000FB681B681B687B61FB681B685B687B61D9
:104D10007B69F86800F057F8FB6808225A64FB6862
:104D2000002283F8402001230FE0FB681B681A680B
:104D3000BB681340BA689A420CBF01230023DBB260
:104D40001A46FB799A42B4D0002318461837BD465C
:104D500080BD80B485B000AFF860B9601346FB80B9
:104D6000FB68BA689A62FB68FA889A85FB68FA88D9
:104D7000DA85FB6800225A64FB68222283F842200D
:104D8000FB681B69002B07D0FB681B68DA68FB68AF
:104D90001B6842F48072DA60FB681B685A69FB6822
:104DA0001B6842F001025A61FB681B68DA68FB6805
:104DB0001B6842F02002DA60002318461437BD4613
:104DC0005DF8047B704780B495B000AF78607B6875
:104DD0001B680C337B637B6B53E8003F3B633B6B8F
:104DE00023F49073FB647B681B680C33FA6C3A64A1
:104DF000FB63F96B3A6C41E80023BB63BB6B002B90
:104E0000E5D17B681B6814333B623B6A53E8003F83
:104E1000FB61FB6923F00103BB647B681B681433EF
:104E2000BA6CFA62BB62B96AFA6A41E800237B6233
:104E30007B6A002BE5D17B681B6B012B19D17B684A
:104E40001B680C33FB60FB6853E8003FBB60BB682A
:104E500023F010037B647B681B680C337A6CBA61A7
:104E60007B617969BA6941E800233B613B69002BAA
:104E7000E5D17B68202283F842207B6800221A63F8
:104E800000BF5437BD465DF8047B704780B584B0E1
:104E900000AF78607B689B6BFB60FB680022DA8563
:104EA000FB680022DA84F868FFF7E4FE00BF1037E1
:104EB000BD4680BD80B485B000AF78607B6893F854
:104EC0004130DBB2212B3ED17B689B68B3F5805F1C
:104ED00014D17B681B69002B10D17B681B6AFB60B7
:104EE000FB681B881A467B681B68C2F308025A607D
:104EF0007B681B6A9A1C7B681A6208E07B681B6AE5
:104F0000591C7A6811621A787B681B685A607B6842
:104F1000DB8C9BB2013B9BB27A681946D184002B93
:104F20000FD17B681B68DA687B681B6822F08002FF
:104F3000DA607B681B68DA687B681B6842F04002B5
:104F4000DA60002300E0022318461437BD465DF8FE
:104F5000047B704780B582B000AF78607B681B68C7
:104F6000DA687B681B6822F04002DA607B682022E6
:104F700083F841207868FFF773FE0023184608374E
:104F8000BD4680BD80B58CB000AF78607B6893F87B
:104F90004230DBB2222B40F0AE807B689B68B3F5D9
:104FA000805F17D17B681B69002B13D10023FB6244
:104FB0007B689B6ABB627B681B685B689BB2C3F3C0
:104FC00008039AB2BB6A1A807B689B6A9A1C7B684A
:104FD0009A6226E07B689B6AFB620023BB627B6867
:104FE0009B68B3F5805F07D07B689B68002B0AD174
:104FF0007B681B69002B06D17B681B685B68DAB293
:10500000FB6A1A7008E07B681B685B68DBB203F020
:105010007F03DAB2FB6A1A707B689B6A5A1C7B6852
:105020009A627B68DB8D9BB2013B9BB27A68194622
:10503000D185002B5DD17B681B68DA687B681B68B3
:1050400022F02002DA607B681B68DA687B681B68E4
:1050500022F48072DA607B681B685A697B681B687F
:1050600022F001025A617B68202283F842207B688B
:1050700000225A637B681B6B012B35D17B680022B1
:105080001A637B681B680C337B617B6953E8003FC4
:105090003B613B6923F010037B627B681B680C3328
:1050A0007A6A3A62FB61F9693A6A41E80023BB61B6
:1050B000BB69002BE5D17B681B681B6803F01003FC
:1050C000102B0AD10023FB607B681B681B68FB6008
:1050D0007B681B685B68FB60FB687B689B8D19467F
:1050E0007868FFF7D1FD02E07868FCF71DFC00232B
:1050F00002E0002300E0022318463037BD4680BDA1
:105100002DE9B04FC0B000AFC7F8F400D7F8F430C5
:105110001B681B6923F44050D7F8F430D968D7F8DE
:10512000F4301A6840EA01031361D7F8F4309A6842
:10513000D7F8F4301B691A43D7F8F4305B691A4387
:10514000D7F8F430DB691343C7F8F830D7F8F430F8
:105150001B68DB6823F4164121F00C01D7F8F4300A
:105160001A68D7F8F8300B43D360D7F8F4301B68CF
:105170005B6923F44070D7F8F4309969D7F8F430BC
:105180001A6840EA01035361D7F8F4301A688F4B6C
:105190009A4205D0D7F8F4301A688D4B9A4204D160
:1051A000FFF7B8F9C7F8FC0003E0FFF79FF9C7F86D
:1051B000FC00D7F8F430DB69B3F5004F40F00C8108
:1051C000D7F8FC300022C7F8E830C7F8EC20D7E960
:1051D0003A4522462B469118B9655B41FB65D7E9F4
:1051E0001623214612EB0108294643EB01094FF033
:1051F00000024FF000034FEAC90343EA58734FEA35
:10520000C80290469946234618EB0303C7F8E030DE
:105210002B4649EB0303C7F8E430D7F8F4305B685A
:105220000022C7F8D830C7F8DC20D7E936120B4681
:10523000DB183B65134642EB03037B65D7E9142378
:10524000D7E93801FBF714F802460B46614BA3FB84
:1052500002235B091C01D7F8FC300022C7F8D030CC
:10526000C7F8D420D7E9348942464B469118B9642F
:105270005B41FB64D7E91223414612EB010A494620
:1052800043EB010B4FF000024FF000034FEACB035A
:1052900043EA5A734FEACA0292469B4643461AEBC8
:1052A0000303C7F8C8304B464BEB0303C7F8CC30B9
:1052B000D7F8F4305B680022C7F8C030C7F8C420C4
:1052C000D7E930120B46DB183B64134642EB03036D
:1052D0007B64D7E91023D7E93201FAF7C9FF024608
:1052E0000B4611463B4BA3FB01235B09642202FBE7
:1052F00003F3CB1ADB0003F13202364BA3FB02238C
:105300005B095B0003F4F8731C44D7F8FC300022FF
:10531000C7F8B830C7F8BC20D7E92E8942464B46BB
:105320009118B9635B41FB63D7E90E2341465118DD
:10533000396349464B417B634FF000024FF0000355
:10534000D7E90CAB5946CB00514643EA517351465D
:10535000CA0010461946034642469B18C7F8B030AB
:105360004B460A4642EB0303C7F8B430D7F8F43093
:105370005B680022C7F8A830C7F8AC20D7E92A122A
:105380000B46DB18BB62134642EB0303FB62D7E913
:105390000A23D7E92C01FAF76BFF02460B460D4BA7
:1053A000A3FB02135B09642101FB03F3D31ADB00A7
:1053B0003233084AA2FB03235B0903F00702D7F844
:1053C000F4301B6822449A6006E100BF00100140DF
:1053D000001401401F85EB51D7F8FC300022C7F8BC
:1053E000A030C7F8A420D7E9288942464B46911837
:1053F00039625B417B62D7E908234146541849462C
:1054000043EB01054FF000024FF00003EB0043EACD
:105410005473E20014461D464346E318C7F898301B
:105420004B4645EB0303C7F89C30D7F8F4305B6874
:105430000022C7F89030C7F894204FF000024FF0D8
:105440000003D7E9244529468B00214643EA91739E
:1054500021468A00D7E92601FAF70AFF02460B46E1
:10546000604BA3FB02235B091C01D7F8FC30002230
:10547000C7F88830C7F88C20D7E9228942464B46C6
:105480009118B9615B41FB61D7E906234146511888
:10549000396149464B417B614FF000024FF00003F8
:1054A000D7E904AB5946CB00514643EA5173514604
:1054B000CA0010461946034642469B18C7F880307A
:1054C0004B460A4642EB0303C7F88430D7F8F43062
:1054D0005B680022BB67FA674FF000024FF00003E1
:1054E000D7E91E8949468B00414643EA91734146FC
:1054F0008A00D7E92001FAF7BBFE02460B461146A7
:10550000384BA3FB01235B09642202FB03F3CB1A94
:105510001B013233334AA2FB03235B0903F0F00380
:105520001C44D7F8FC3000223B677A67D7E91C8916
:1055300042464B469118B9605B41FB60D7E90223B4
:1055400041465118396049464B417B604FF000029B
:105550004FF00003D7E900AB5946CB00514643EA70
:1055600051735146CA0010461946034642469B18DD
:10557000BB664B460A4642EB0303FB66D7F8F430A2
:105580005B6800223B667A664FF000024FF0000332
:10559000D7E9188949468B00414643EA9173414651
:1055A0008A00D7E91A01FAF763FE02460B460D4B53
:1055B000A3FB02135B09642101FB03F3D31A1B0154
:1055C0003233084AA2FB03235B0903F00F02D7F82A
:1055D000F4301B6822449A6000BF07F58077BD460F
:1055E000BDE8B08F1F85EB51164B10B51C68236BBF
:1055F000B3B9182000F040FA0246206320B9124BDC
:105600001248522100F0D0F91149124BC0E90013A1
:10561000114B83600B23838100210120C2E9040127
:10562000216B0E480B694C690D4A584302FB04007C
:10563000A3FB0232013340EB0200C1E9043020F049
:10564000004010BD64000020986A0008AF6A00089E
:105650000E33CDAB34126DE6ECDE05002DF451585F
:105660002D7F954C002310B50446C0E90033C0E9F6
:105670000433836081814366C281836119460822B5
:105680005C3000F014F90D4B63620D4BA3620D4BBF
:10569000E3620D4B23630D4B24629C4206D003F161
:1056A0006802944202D0D0339C4205D104F15800E4
:1056B000BDE8104000F074B910BD00BF29580008C3
:1056C0004B58000883580008A7580008842600207B
:1056D000024A0349034800F069B800BF580000209F
:1056E000B96200086800002041680C4B994210B56F
:1056F000044601D000F0E0FDA168094B994202D0B8
:10570000204600F0D9FDE168064B994204D02046BE
:10571000BDE8104000F0D0BD10BD00BF84260020C1
:10572000EC2600205427002010B50B4B0B4C0C4AE4
:105730001A60204600220421FFF794FF04F168005C
:1057400001220921FFF78EFF04F1D0000222BDE8FB
:1057500010401221FFF786BFBC27002084260020BE
:10576000D1560008014800F01CB900BFC527002031
:10577000014800F017B900BFC527002010B5044646
:10578000FFF7F0FF236A1BB1BDE81040FFF7F0BF41
:10579000044B2362044B1B68002BF5D1FFF7C4FFB9
:1057A000F2E700BFE9560008BC2700202DE9F843C6
:1057B0000746884614460026D4E90195B9F1010947
:1057C00005D52468002CF7D13046BDE8F883AB89B5
:1057D000012B07D9B5F90E30013303D029463846DD
:1057E000C04706436835E9E70EB400B59CB01DAB71
:1057F000029006906FF00041094807910491094911
:1058000053F8042B05910068019302A900F046FAB1
:10581000029B00221A701CB05DF804EB03B07047C5
:10582000640000200802FFFF10B50C46B1F90E100D
:1058300000F068F80028ABBF636DA3891B1823F440
:105840008053ACBF6365A38110BD2DE9F0411F46B5
:105850008B89DB0505460C46164605D5B1F90E10B9
:105860000223002200F03CF8A389B4F90E1023F4BF
:105870008053A38132463B462846BDE8F04100F004
:1058800053B810B50C46B1F90E1000F029F8431CBE
:10589000A38915BF606523F4805343F48053A3812B
:1058A00018BFA38110BDB1F90E1000F009B8024471
:1058B0000346934200D1704703F8011BF9E700004B
:1058C00038B5064D0023044608462B60FCF770FEF1
:1058D000431C02D12B6803B1236038BDC0270020D0
:1058E00038B5074D04460846114600222A601A467C
:1058F000FCF785FE431C02D12B6803B1236038BD41
:10590000C027002038B5074D04460846114600223E
:105910002A601A46FCF713FE431C02D12B6803B120
:10592000236038BDC027002038B5074D044608461F
:10593000114600222A601A46FCF71EFE431C02D1C3
:105940002B6803B1236038BDC0270020014B1868C5
:10595000704700BF6400002070B50D4D0D4C641BF6
:10596000A4100026A64209D10B4D0C4C00F0F0FF0C
:10597000641BA4100026A64205D170BD55F8043B57
:1059800098470136EEE755F8043B98470136F2E7B1
:10599000806B0008806B0008806B0008846B000837
:1059A00070477047704700001FB514461A46094BF0
:1059B0001B680546D86854B9074B1C46CDE901342D
:1059C00000912B46054900F09FFC00F0E7FC044BDA
:1059D000F4E700BF64000020426B0008146B00086D
:1059E000076B000838B50546002941D051F8043C42
:1059F0000C1F002BB8BFE41800F0E8F81D4A13682C
:105A000033B9636014602846BDE8384000F0E4B85C
:105A1000A34208D9206821188B4201BF19685B682E
:105A200009182160EDE71A465B680BB1A342FAD969
:105A300011685018A0420BD12068014450188342CD
:105A40001160E0D118685B68536008441060DAE7C1
:105A500002D90C232B60D6E7206821188B4204BFA3
:105A600019685B68636004BF091821605460CAE765
:105A700038BD00BFCC270020024B0146186800F05B
:105A800025B800BF6400002070B50F4E0C46316889
:105A9000054611B900F064FC30602146284600F04C
:105AA0005FFC431C03D14FF0FF34204670BDC41C83
:105AB00024F00304A042F8D0211A284600F050FC3C
:105AC0000130F2D1EFE700BFC82700202DE9F843ED
:105AD000CD1C25F0030508350C2D38BF0C25002DF5
